{
  "contractName": "AntiCorruption",
  "abi": [
    {
      "inputs": [
        {
          "internalType": "address",
          "name": "",
          "type": "address"
        }
      ],
      "name": "donorsAndAmount",
      "outputs": [
        {
          "internalType": "uint256",
          "name": "",
          "type": "uint256"
        }
      ],
      "stateMutability": "view",
      "type": "function"
    },
    {
      "inputs": [],
      "name": "name",
      "outputs": [
        {
          "internalType": "string",
          "name": "",
          "type": "string"
        }
      ],
      "stateMutability": "view",
      "type": "function"
    },
    {
      "inputs": [],
      "name": "balanceOf",
      "outputs": [
        {
          "internalType": "uint256",
          "name": "",
          "type": "uint256"
        }
      ],
      "stateMutability": "view",
      "type": "function"
    },
    {
      "inputs": [],
      "name": "finalAmount",
      "outputs": [
        {
          "internalType": "uint256",
          "name": "",
          "type": "uint256"
        }
      ],
      "stateMutability": "view",
      "type": "function"
    },
    {
      "inputs": [],
      "name": "donate",
      "outputs": [],
      "stateMutability": "payable",
      "type": "function"
    },
    {
      "inputs": [],
      "name": "transferAmount",
      "outputs": [],
      "stateMutability": "payable",
      "type": "function"
    }
  ],
  "bytecode": "0x60806040526040518060400160405280600e81526020017f416e7469436f7272757074696f6e0000000000000000000000000000000000008152506000908051906020019061004f9291906100c3565b506729a2241af62c0000600255739fd12256d77d4fe2637a6f7100d9dd9d1bcce817600360006101000a81548173ffffffffffffffffffffffffffffffffffffffff021916908373ffffffffffffffffffffffffffffffffffffffff1602179055503480156100bd57600080fd5b50610160565b828054600181600116156101000203166002900490600052602060002090601f016020900481019282601f1061010457805160ff1916838001178555610132565b82800160010185558215610132579182015b82811115610131578251825591602001919060010190610116565b5b50905061013f9190610143565b5090565b5b8082111561015c576000816000905550600101610144565b5090565b61047f8061016f6000396000f3fe6080604052600436106100555760003560e01c806306fdde031461005a5780630db286f7146100ea578063504d27fd1461014f578063722713f714610159578063ecf5ac8914610184578063ed88c68e146101af575b600080fd5b34801561006657600080fd5b5061006f6101b9565b6040518080602001828103825283818151815260200191508051906020019080838360005b838110156100af578082015181840152602081019050610094565b50505050905090810190601f1680156100dc5780820380516001836020036101000a031916815260200191505b509250505060405180910390f35b3480156100f657600080fd5b506101396004803603602081101561010d57600080fd5b81019080803573ffffffffffffffffffffffffffffffffffffffff169060200190929190505050610257565b6040518082815260200191505060405180910390f35b61015761026f565b005b34801561016557600080fd5b5061016e61035b565b6040518082815260200191505060405180910390f35b34801561019057600080fd5b5061019961037a565b6040518082815260200191505060405180910390f35b6101b7610384565b005b60008054600181600116156101000203166002900480601f01602080910402602001604051908101604052809291908181526020018280546001816001161561010002031660029004801561024f5780601f106102245761010080835404028352916020019161024f565b820191906000526020600020905b81548152906001019060200180831161023257829003601f168201915b505050505081565b60016020528060005260406000206000915090505481565b60025461027a61035b565b10156102ee576040517f08c379a000000000000000000000000000000000000000000000000000000000815260040180806020018281038252601e8152602001807f46696e616c20616d6f756e74206e6f74207965742061636869657665642e000081525060200191505060405180910390fd5b600360009054906101000a900473ffffffffffffffffffffffffffffffffffffffff1673ffffffffffffffffffffffffffffffffffffffff166108fc6002549081150290604051600060405180830381858888f19350505050158015610358573d6000803e3d6000fd5b50565b60003073ffffffffffffffffffffffffffffffffffffffff1631905090565b6000600254905090565b600034116103fa576040517f08c379a000000000000000000000000000000000000000000000000000000000815260040180806020018281038252601a8152602001807f596f75206e65656420746f207370656e64206d6f72652065746800000000000081525060200191505060405180910390fd5b34600160003373ffffffffffffffffffffffffffffffffffffffff1673ffffffffffffffffffffffffffffffffffffffff1681526020019081526020016000206000828254019250508190555056fea2646970667358221220bfc123a101d88c8d3ede125872466ec507d4605e1465c4d51e04fefae608b74664736f6c634300060c0033",
  "immutableReferences": {},
  "source": "// SPDX-License-Identifier:MIT \r\n\r\npragma solidity ^0.6.0;\r\n\r\ncontract AntiCorruption\r\n{\r\n    string public name = \"AntiCorruption\";\r\n    \r\n    mapping(address=>uint256) public donorsAndAmount;\r\n\r\n    uint targetAmount= 3 ether;\r\n\r\n     address payable finalReceiver = 0x9fD12256d77D4fE2637A6f7100d9DD9d1bCce817;\r\n\r\n     function balanceOf() public view returns(uint)\r\n     {\r\n         return address(this).balance;\r\n     }\r\n\r\n     function finalAmount() public view returns(uint)\r\n     {\r\n         return targetAmount;\r\n     }\r\n\r\n     function donate() public payable\r\n     {\r\n        require(msg.value>0,\"You need to spend more eth\");\r\n        donorsAndAmount[msg.sender]+=msg.value;\r\n     }\r\n\r\n\r\n     function transferAmount() public payable\r\n     {\r\n         require(balanceOf()>=targetAmount,\"Final amount not yet achieved.\");\r\n         finalReceiver.transfer(targetAmount);\r\n\r\n     }\r\n\r\n\r\n\r\n\r\n    \r\n}\r\n",
  "sourcePath": "C:/Users/dheem/Desktop/anticorruptionledger/src/contracts/AntiCorruption.sol",
  "compiler": {
    "name": "solc",
    "version": "0.6.12+commit.27d51765.Emscripten.clang"
  },
  "schemaVersion": "3.2.3",
  "updatedAt": "2022-06-24T07:02:59.385Z",
  "devdoc": {
    "kind": "dev",
    "methods": {},
    "version": 1
  },
  "userdoc": {
    "kind": "user",
    "methods": {},
    "version": 1
  }
}